:100000000C9434000C9451000C9451000C94510049
:100010000C9451000C9451000C9451000C9451001C
:100020000C9451000C9451000C9451000C9451000C
:100030000C9451000C9451000C9451000C945100FC
:100040000C9451000C9451000C9451000C945100EC
:100050000C9451000C9451000C9451000C945100DC
:100060000C9451000C94510011241FBECFEFD4E02A
:10007000DEBFCDBF11E0A0E0B1E0E2E5F1E002C0FB
:1000800005900D92A831B107D9F711E0A8E1B1E0D0
:1000900001C01D92A831B107E1F70E94A0000C94A5
:1000A000A7000C940000009711F02D9A08952D9848
:1000B00008951F93CF93DF93182F80E090E00E9464
:1000C000530080E091E00197F1F7C8E0D0E0212FE4
:1000D000332727FD3095C901817090700E9453002D
:1000E00080E091E00197F1F71595219781F781E084
:1000F00090E00E94530080E091E00197F1F7DF91DA
:10010000CF911F910895CF93DF93EC0102C00E941D
:10011000590089918823D9F7DF91CF910895259AC5
:100120002D9A8FEF9FEFADE181509040A040E1F715
:1001300000C0000080E091E00E94830008950895CF
:100140000E948F0087E091E00E948300FBCFF8942B
:02015000FFCFDF
:100152001B5B481B5B4A005374617274206F6620FC
:080162004C6F6F700D0A0000E4
:00000001FF
