:100000000C9434000C9451000C9451000C94510049
:100010000C9451000C9451000C9451000C9451001C
:100020000C9451000C9451000C9451000C9451000C
:100030000C9451000C9451000C9451000C945100FC
:100040000C9451000C9451000C9451000C945100EC
:100050000C9451000C9451000C9451000C945100DC
:100060000C9451000C94510011241FBECFEFD4E02A
:10007000DEBFCDBF11E0A0E0B1E0E4E9F1E002C0F5
:1000800005900D92A634B107D9F711E0A6E4B1E0CE
:1000900001C01D92A634B107E1F70E94BE000C9486
:1000A000C8000C940000009711F02D9A08952D9827
:1000B00008951F93CF93DF93182F80E090E00E9464
:1000C000530080E091E00197F1F7C8E0D0E0212FE4
:1000D000332727FD3095C901817090700E9453002D
:1000E00080E091E00197F1F71595219781F781E084
:1000F00090E00E94530080E091E00197F1F7DF91DA
:10010000CF911F910895CF93DF93EC0102C00E941D
:10011000590089918823D9F7DF91CF910895259AC5
:100120002D9A8FEF9FEFADE181509040A040E1F715
:1001300000C0000080E091E00E94830087E091E031
:100140000E94830008958130910529F483B190E0E5
:1001500084709070089583B190E0847090700895D9
:10016000209A299A2A9A8BE191E00E9483000895AF
:100170001A9B02C0289AFCCF2898FACF0E948F00C1
:100180000E94B00085E391E00E9483000E94B800C5
:04019000F894FFCF11
:100194001B5B481B5B4A00535541525420496E690E
:1001A4007469616C697A6564720A0050686F6E657F
:1001B40020537570706F727420496E7469616C6934
:1001C4007A65640A005374617274206F66204C6F00
:0601D4006F700D0A00002F
:00000001FF
