:100000000C9434000C9451000C9451000C94510049
:100010000C9451000C9451000C9451000C9451001C
:100020000C9451000C9451000C9451000C9451000C
:100030000C9451000C9451000C9451000C945100FC
:100040000C9451000C9451000C9451000C945100EC
:100050000C9451000C9451000C9451000C945100DC
:100060000C9451000C94510011241FBECFEFD4E02A
:10007000DEBFCDBF11E0A0E0B1E0E4E5F1E002C0F9
:1000800005900D92AA31B107D9F711E0AAE1B1E0CC
:1000900001C01D92AA31B107E1F70E94A6000C949D
:1000A000A8000C940000009711F02D9A08952D9847
:1000B00008951F93CF93DF93182F80E090E00E9464
:1000C000530080E091E00197F1F7C8E0D0E0212FE4
:1000D000332727FD3095C901817090700E9453002D
:1000E000A0E0B1E01197F1F71595219781F781E034
:1000F00090E00E9453008FEF9FEFADE18150904060
:10010000A040E1F700C00000DF91CF911F9108955A
:10011000CF93DF93EC0102C00E945900899188239C
:10012000D9F7DF91CF910895259A2D9A8FEF9FEF00
:10013000ADE181509040A040E1F700C0000080E0B8
:1001400091E00E94880087E091E0FBCF0E9494003C
:04015000F894FFCF51
:100154001B5B481B5B4A00457562616E6B207275C0
:0A0164006C6573212121210D0A00B2
:00000001FF
