:100000000C9434000C9451000C9451000C94510049
:100010000C9451000C9451000C9451000C9451001C
:100020000C9451000C9451000C9451000C9451000C
:100030000C9451000C9451000C9451000C945100FC
:100040000C9451000C9451000C9451000C945100EC
:100050000C9451000C9451000C9451000C945100DC
:100060000C9451000C94510011241FBECFEFD4E02A
:10007000DEBFCDBF11E0A0E0B1E0EAE6FAE002C0E9
:1000800005900D92A038B107D9F711E0A0E8B1E0D2
:1000900001C01D92A138B107E1F70E9455020C94EE
:1000A00033050C940000009711F02D9A08952D98B7
:1000B00008951F93CF93DF93182F80E090E00E9464
:1000C000530080E091E00197F1F7C8E0D0E0212FE4
:1000D000332727FD3095C901817090700E9453002D
:1000E00080E091E00197F1F71595219781F781E084
:1000F00090E00E94530080E091E00197F1F7DF91DA
:10010000CF911F910895CF93DF93EC0102C00E941D
:10011000590089918823D9F7DF91CF910895259AC5
:100120002D9A8FEF9FEFADE181509040A040E1F715
:1001300000C0000080E091E00E94830087E091E031
:100140000E9483000895209A2898299A2A9A8BE180
:1001500091E00E94830008958130910529F483B1D4
:1001600090E082709070089583B190E084709070F8
:100170000895FC0180E090E06150704005C022814C
:10018000338121933193019686179707C4F308951D
:10019000FC0120E030E040E050E06150704006C0DB
:1001A00081919191280F391F4F5F5F4F4617570775
:1001B000BCF3C90108952F923F924F925F926F92C4
:1001C0007F928F929F92AF92BF92CF92DF92EF92E7
:1001D000FF920F931F93CF93DF93CDB7DEB7C25F2C
:1001E000D0400FB6F894DEBF0FBECDBF8091800126
:1001F000882309F040C181E090E00E94AC000097A4
:1002000009F439C181E08093800184E19E012B5E75
:100210003F4FD901E82F1D92EA95E9F7DE011196CB
:10022000FD0111928A95E9F700E010E0CF50DF4F11
:1002300019821882C15FD0402224332444245524DB
:10024000AA24BB2479016D017EC082E090E00E9467
:10025000AC004C0181E090E00E94AC003C01C70181
:100260006AE070E00E94B900C6016AE070E00E9496
:10027000B90098A68FA27C8A6B8AC6016AE070E0FA
:100280000115110509F055C00E94C8008330910581
:100290000CF459C00894A11CB11CF2E1AF16B104D2
:1002A00084F4289AC7016AE070E00E94C80021E047
:1002B00030E08330910514F420E030E0420E531E0C
:1002C0003DC080E3A816B10484F42898C7016AE011
:1002D00070E00E94C80021E030E08330910514F402
:1002E00020E030E0220E331E29C098E7A916B104A1
:1002F000E4F4289AC7016AE070E00E94C80021E097
:1003000030E08330910514F420E030E0CF50DF4F2F
:10031000A881B981C15FD040A20FB31FCF50DF4F7A
:10032000B983A883C15FD04009C02898109280018A
:1003300005C00E94C800833091051CF001E010E068
:1003400002C000E010E080918001882309F07DCF99
:1003500000D000D000D0EDB7FEB731968FEB882EDD
:10036000912C8C0E9D1EADB7BEB712969C928E92AC
:10037000119796E3E92E91E0F92EF382E282B5829D
:10038000A4820E945C02EDB7FEB731962DE8A22E42
:10039000B12CAC0EBD1EADB7BEB71296BC92AE92DC
:1003A0001197F382E282558244820E945C02EDB78B
:1003B000FEB731963BE5C32ED12CCC0EDD1EADB77A
:1003C000BEB71296DC92CE921197F382E28235820A
:1003D00024820E945C02EDB7FEB731968E01075D64
:1003E0001F4FADB7BEB712961C930E931197F382B1
:1003F000E282CF50DF4F88819981C15FD0409583E1
:1004000084830E945C02ADB7BEB716960FB6F8940F
:10041000BEBF0FBEADBF89E391E00E948300C4015F
:100420000E94830087E491E00E9483008AE491E0C7
:100430000E948300C5010E94830087E491E00E942E
:10044000830085E591E00E948300C6010E9483003D
:1004500087E491E00E94830081E691E00E9483009E
:10046000C8010E94830087E491E00E9483008FE628
:1004700091E00E948300CE50DF4F0FB6F894DEBFAC
:100480000FBECDBFDF91CF911F910F91FF90EF90E5
:10049000DF90CF90BF90AF909F908F907F906F90A4
:1004A0005F904F903F902F9008950E948F000E9480
:1004B000A3000E94DB00FDCFAEE0B0E0E2E6F2E098
:1004C0000C940A050D891E8986E08C831A830983A2
:1004D0008FEF9FE79E838D83AE01475E5F4FCE0116
:1004E00001966F89788D0E947E02EF81F885E00F7A
:1004F000F11F10822E96E4E00C942605ADE0B0E0EA
:10050000E4E8F2E00C94FC043C017D876C875A011E
:10051000FC0117821682838181FFC8C12E010894D5
:10052000411C511CF3019381EC85FD8593FD859160
:1005300093FF8191FD87EC87882309F4B3C185324D
:1005400041F493FD859193FF8191FD87EC8785327E
:1005500029F490E0B3010E947204E4CFFF24EE245A
:1005600010E01032B0F48B3269F08C3228F4803213
:1005700051F0833271F40BC08D3239F0803349F47D
:1005800011602CC01260146029C0186027C010616F
:1005900025C017FD2EC0282F20532A3098F416FFAF
:1005A00008C08F2D880FF82EFF0CFF0CF80EF20EEE
:1005B00015C08E2D880FE82EEE0CEE0CE80EE20E24
:1005C00010620CC08E3221F416FD6CC1106406C09E
:1005D0008C3611F4106802C0883659F4EC85FD851C
:1005E00093FD859193FF8191FD87EC87882309F026
:1005F000B8CF982F9554933018F09052933038F428
:1006000024E030E0A20EB31E3FE339830FC08336EF
:1006100031F0833781F0833509F05AC022C0F501EB
:100620008081898322E030E0A20EB31E21E0C22E39
:10063000D12C420114C092E0292E312C2A0C3B1CF3
:10064000F5018080918016FF03C06F2D70E002C01D
:100650006FEF7FEFC4010E9467046C0151011F77A7
:1006600015C082E0282E312C2A0C3B1CF50180801D
:10067000918016FF03C06F2D70E002C06FEF7FEF17
:10068000C4010E945C046C011068510113FD1CC080
:1006900006C080E290E0B3010E947204EA948E2DBD
:1006A00090E0C816D906A8F30FC0F40117FD859194
:1006B00017FF81914F0190E0B3010E947204E11095
:1006C000EA940894C108D108C114D10471F7E7C0B5
:1006D000843611F0893651F5F50117FF07C0808186
:1006E0009181A281B38124E030E008C080819181B2
:1006F000AA2797FDA095BA2F22E030E0A20EB31EE4
:10070000012F0F76B7FF08C0B095A0959095819501
:100710009F4FAF4FBF4F0068BC01CD01A2012AE03F
:1007200030E00E949E04D82ED4183FC0853721F4B3
:100730001F7E2AE030E020C0197F8F36A9F0803775
:1007400020F4883509F0AEC00BC0803721F088371F
:1007500009F0A8C001C0106114FF09C0146007C0EF
:1007600014FF08C0166006C028E030E005C020E194
:1007700030E002C020E132E0F50117FF07C06081E0
:1007800071818281938144E050E006C06081718173
:1007900080E090E042E050E0A40EB51EA2010E946D
:1007A0009E04D82ED418012F0F7706FF09C00E7FA4
:1007B000DF1430F404FF06C002FD04C00F7E02C047
:1007C0001D2D01C01F2D802F90E004FF0CC0FE01E5
:1007D000ED0DF11D2081203311F4097E09C002FFC7
:1007E00006C01E5F05C086789070009709F01F5FF5
:1007F000802E992403FD12C000FF0DC0FD2C1E1594
:1008000050F4FE0CF11A1E2D06C080E290E0B301F8
:100810000E9472041F5F1E15C0F304C01E1510F461
:10082000E11A01C0EE2484FE0FC080E390E0B30122
:100830000E94720482FE1FC081FE03C088E590E022
:1008400010C088E790E00DC0C401867890700097D2
:1008500091F081FC02C080E201C08BE207FD8DE2D5
:1008600090E0B3010E94720406C080E390E0B301FF
:100870000E947204FA94DF14C0F3DA94F201ED0DD1
:10088000F11D808190E0B3010E947204DD20A9F780
:1008900006C080E290E0B3010E947204EA94EE2068
:1008A000C1F740CEF3018681978102C08FEF9FEFA1
:1008B0002D96E2E10C941805FC0105906150704002
:1008C0000110D8F7809590958E0F9F1F0895FC0119
:1008D0006150704001900110D8F7809590958E0F6F
:1008E0009F1F08950F931F93CF93DF938C01EB010C
:1008F0008B8181FF1BC082FF0DC02E813F818C81C7
:100900009D812817390764F4E881F9810193F983FF
:10091000E88306C0E885F985802F0995009731F4B2
:100920008E819F8101969F838E8302C00FEF1FEF00
:10093000C801DF91CF911F910F910895FA01AA2765
:10094000283051F1203181F1E8946F936E7F6E5F12
:100950007F4F8F4F9F4FAF4FB1E03ED0B4E03CD0C0
:10096000670F781F891F9A1FA11D680F791F8A1FA3
:10097000911DA11D6A0F711D811D911DA11D20D00A
:1009800009F468943F912AE0269F11243019305DC4
:100990003193DEF6CF010895462F4770405D4193B5
:1009A000B3E00FD0C9F7F6CF462F4F70405D4A3302
:1009B00018F0495D31FD4052419302D0A9F7EACFCA
:1009C000B4E0A6959795879577956795BA95C9F7F9
:1009D00000976105710508959B01AC010A2E0694EC
:1009E0005795479537952795BA95C9F7620F731FA5
:1009F000841F951FA01D08952F923F924F925F92E2
:100A00006F927F928F929F92AF92BF92CF92DF921E
:100A1000EF92FF920F931F93CF93DF93CDB7DEB783
:100A2000CA1BDB0B0FB6F894DEBF0FBECDBF099417
:100A30002A88398848885F846E847D848C849B846E
:100A4000AA84B984C884DF80EE80FD800C811B817C
:100A5000AA81B981CE0FD11D0FB6F894DEBF0FBEAB
:0A0A6000CDBFED010895F894FFCF1B
:100A6A001B5B481B5B4A00535541525420496E692F
:100A7A007469616C697A65640D0A0050686F6E6505
:100A8A0020537570706F727420496E7469616C6955
:100A9A007A65640D0A00256400436C6F636B20431A
:100AAA0079636C65733A000D0A0044617920436FDB
:100ABA00756E743A00486F757220436F756E743A9A
:100ACA00004D696E75746520436F756E743A0050F7
:100ADA006172736520436F6D706C6574650D0A00F1
:00000001FF
